:100000005FCA5FCA5FCA5FCA5FCA5FCA5FCA5FCAA8
:1014C00033C05FC08BC05DC05CC05BC05AC059C038
:1014D00058C057C056C055C054C053C052C009026E
:1014E0001200010100803209040000000000000029
:1014F00012011001FF00000841239F0C00010102AE
:1015000000010C03470065006D006D0061001603CB
:10151000410072006400750069006E006F002E00CB
:10152000630063000403090411241FBECFE5D2E069
:10153000DEBFCDBF84B7877F84BF88E10FB6F89444
:1015400081BD11BC0FBE91E080E80FB6F89486BD56
:1015500096BD0FBE0AEA0F9310E0A0E6B0E0EEEDF4
:10156000FFE102C005900D92A236B107D9F711E054
:10157000A2E6B0E001C01D92A832B107E1F7EDD3B9
:101580002CC59ECFA82FB92F80E090E041E050EA13
:10159000609530E009C02D9182279795879510F0CE
:1015A00084279527305EC8F36F5FA8F30895EADFBC
:1015B0008D939D930895A6E088279927AA9569F0B1
:1015C0000197E1F3B399FCCFB39BFECF81E099275C
:1015D000A6B3019611F0A871D9F70895CF93CFB7AC
:1015E000CF93C0915F02CA3A21F0CF91CFBFCF9184
:1015F00065CFCC27C395B39BE9F7B39B0BC0B39BD7
:1016000009C0B39B07C0B39B05C0B39B03C0B39B8A
:1016100001C0D3C00F92DF93C0910B01DD27CE5ED6
:10162000DE4F012EB39B03C0DF910F90E6CF2F93C7
:101630000F931F934F932FEF4F6F06B303FB20F9C8
:101640005F933F9350E03BE065C016B301265029FD
:1016500053FDC89556B3012703FB25F92F7306B335
:10166000B1F05027102713FB26F906B22230F0F014
:1016700000C016B3012703FB27F90126502906B243
:101680002430E8F54F77206816B30000F6CF5027D6
:101690004F7D206206B2102F000000C006B3002666
:1016A0005029102713FB26F906B2E2CF4F7B06B371
:1016B000206400C0DACF01265029187106B269F102
:1016C0004E7F2160012F16B328C0002650294D7F80
:1016D00006B22260102F29C0012650294B7F06B286
:1016E0002460012F2DC016B301265029477F2860A2
:1016F000000006B22EC04F7E06B3206130C04227E4
:1017000006B3499300265029102706B24FEF13FB6A
:1017100020F9297F16B379F2187159F10126502961
:1017200006B2012703FB21F9237F06B371F20026DD
:1017300050293150D0F006B2102713FB22F9277E32
:1017400016B351F201265029012703FB06B223F9F3
:101750002F7C49F2000006B3102713FB24F9002662
:10176000502906B22F7939F270CF10E21ABF002744
:1017700017C03B503195C31BD04010E21ABF0881FF
:10178000033CF9F00B34E9F0209109011981110FA4
:101790001213EDCF093651F10D3211F0013E39F738
:1017A000009310013F915F914F911F910F912F91E5
:1017B000DF910F90CAB7C5FD1DCFCF91CFBFCF919D
:1017C000189520911001222369F310910E01112325
:1017D00021F5343022F130930E0120930A0110914B
:1017E0000B013BE0311B30930B0119C000910E013E
:1017F00001309CF40AE53091610034FD11C0009382
:101800006100CEEFD0E010C0052710E000C021C07D
:10181000052710E0C89508BB14C03AE501C032EDB9
:10182000032EC0E0D0E032E017B31861C39A08B3CA
:1018300017BB58E120E84FEF20FF052708BB27958D
:1018400017951C3F28F700004552B0F720FF0527E9
:10185000279508BB17951C3FB8F629913A9561F773
:10186000077E10910F01110F08BBC250D04011F03C
:101870001093090110E21ABF086017B3177E402FBA
:10188000477E54E05A95F1F708BB17BB48BB8ACF97
:101890002091F9003091FA002D3B3441B8F421E059
:1018A0002093F600F894E091F900F091FA000C0111
:1018B00020935700E895112478948091F900909135
:1018C000FA0002969093FA008093F90008958091AF
:1018D000F600882309F43DC08091F9009091FA0048
:1018E000813C944108F035C0F8948091F9009091C2
:1018F000FA008238944118F1809166009091670057
:101900008F559A409F70906CEEEBF4E121E00C0152
:1019100020935700E895112480916E0090916F00FC
:101920008C559A409F70906CECEBF4E10C01209385
:101930005700E8951124789481E080936400E09149
:10194000F900F091FA00329785E080935700E8950E
:1019500078941092F6000895FF920F931F93CF93FF
:10196000DF9380910E01835087FD5AC190910B0146
:10197000ACE0B0E0A91BB109AE5EBE4F31E03093E0
:10198000620090910A019D3209F00AC1883009F085
:1019900045C183EC8093FE008AE58093610010923C
:1019A000FD008C91807609F47DC01092F3001092B6
:1019B000F5001092F40011962C911197213009F442
:1019C00069C0263021F481E08093FC0067C0273095
:1019D00009F040C03093FC0089EE90E090930D0137
:1019E00080930C0113969C9113979093EB001092A7
:1019F000EC0012968C911297803379F491114CC0BF
:101A00001496EC911497F0E0EE0FFF1F81E28093A3
:101A10005700E491E093EC003FC08C3A81F4903899
:101A2000D9F514968C911497811136C015968C9126
:101A30001597811131C081E08093E8002DC08C346E
:101A400059F515968C911597811126C081E08093E8
:101A5000E70022C0283009F4B6CF14968D919C91EE
:101A600015979093FA008093F90016968C9116972B
:101A70008093F10087EF820F843080F48FE788BD78
:101A80003093FB002093F2002A3051F081E08093E4
:101A9000FC0006C021E077C024E075C020E073C0E0
:101AA0002FEF68C012969C91129710920701119621
:101AB0008C911197811106C01092080187E091E086
:101AC00022E052C0853019F490930F013FC0863058
:101AD000B9F513968C911397813019F480EF94E146
:101AE00004C0823041F48EED94E190930D01809317
:101AF0000C0122E121C08330F1F4911108C084E28D
:101B000095E190930D0180930C0124E015C0913074
:101B100041F48EE095E190930D0180930C0126E154
:101B20000BC0923041F482E095E190930D018093D7
:101B30000C012CE001C020E080E48093FD0018C07F
:101B4000883079F0893031F49093110187E091E089
:101B500020E00AC021E08A3009F020E087E091E02F
:101B600003C081E191E021E090930D0180930C018D
:101B70002F3F49F48C9187FF02C016962C9180E884
:101B80008093FD000AC017968C911797811105C0AC
:101B900016968C91821708F4282F209360003EC07F
:101BA0009091FD0097FF3AC09091F100182F98177F
:101BB00008F4192F092F011B0093F1001092FC006B
:101BC0008091F2008A3029F0011128C01092600043
:101BD00025C0FA2ECA2FDB2F8C2F8F198117A0F763
:101BE0008091F9009091FA008034910590F421E001
:101BF00020936500FC01EE0FFF1FEA59FF4F28817B
:101C000039813183208302969093FA008093F90002
:101C100003C0888199813CDE2296DECF10920E01AE
:101C20008091610084FF7BC0809160008F3F09F448
:101C300076C0182F893008F018E0811B809360006F
:101C40008091FE0098E889278093FE00112309F413
:101C50005AC08091FD0087FF38C08091F100811744
:101C600008F4182F811B8093F1003091F200E0916D
:101C7000F900F091FA0020E0AFEFB0E0211700F595
:101C80003B3009F4FFCF3930D9F7E034F10560F487
:101C9000EF01CC0FDD1FCA59DF4F888199818D93E9
:101CA0009D932E5F3296EACFEC3B84E1F80710F06B
:101CB0008FEF01C084918C9311962F5F3196DECF08
:101CC000F093FA00E093F9001EC0E0910C01F0914E
:101CD0000D0186FF0BC08FEF90E0DC0124912D9366
:101CE0003196212F280F2A13F9CF09C08FEF90E0EA
:101CF000DC0121912D93212F280F2A13FACFF09385
:101D00000D01E0930C01612F8FEF90E050DC1C5F20
:101D10001C3019F08FEF809360001093610084E114
:101D200096B3987131F48150D9F710920F01109247
:101D30000901C1E08111C0E0809163008C1739F086
:101D4000C11103C0F89401D17894C0936300DF916E
:101D5000CF911F910F91FF900895C1B7B99A83E277
:101D60008ABD81E083BFAC9A8BB780628BBFBB9A80
:101D70002FE132E18AE0215030408040E1F700C09D
:101D80000000BB987894E8DD8091E800882321F179
:101D900082E090E09093F8008093F70013C0CF01A9
:101DA0008F739927892B21F483E080935700E8955E
:101DB000D3DD8091F7009091F80002969093F8009F
:101DC0008093F700E091F700F091F800E03C94E197
:101DD000F90728F31092E8008091E700882329F0A2
:101DE000BBDD75DD1092E700B7DD809162008823CE
:101DF00041F08091FC00811104C08091FB008111B1
:101E0000C2CF80916200882371F08091E600811139
:101E10000AC088B5805F88BD88B5811104C08AB5C5
:101E200090E189278ABD8091E6008F5F8093E6006C
:101E30008EEC90E00197F1F78091F4009091F5001D
:101E400001969093F5008093F4002091F3000097A1
:101E500011F42F5F00C02093F30030916200311124
:101E600005C081323EE4930708F05AC03091FC006F
:101E7000332321F08131974208F052C080916200F3
:101E8000882309F480CF8091FB0081117CCF23301F
:101E900008F479CF45C080916400811149C08CEB72
:101EA00094E19093FA008093F90081E08093F6002A
:101EB0000EDD3EC0DF01AA0FBB1FAA59BF4F8D9197
:101EC0009C919F012B7F232B31F4E054FB4E859195
:101ED0009491805A954FDCDCE091F900F091FA0082
:101EE000E034F10538F3F3DC10925F0217BA13BE49
:101EF0001ABC03C081B78F5F81BF81B78C17D0F345
:101F000003C081B7815081BF81B7C817D0F391E07A
:101F100080E80FB6F89486BD96BD0FBED0CA13C038
:101F200015BA1BBEF894809165008111B4CFDCCF47
:101F3000E0E0F0E083E080935700E8951092FA002B
:101F40001092F900C9CF80E090E0DF92EF92FF920B
:101F50000F931F93CF93DF9390E080E80FB6F89430
:101F600086BD96BD0FBE08E010E0F12C80E8E82E9B
:101F7000DF2CDE0CD1BE1FDBEC01C43389E0D807B7
:101F80000CF4FD2CE694015011090115110581F79F
:101F90001F2D8FEF8F0D81BF21B730E0812F90E093
:101FA00001968217930784F006DB8453994097FFCC
:101FB00003C09195819591098C179D0714F4F1B692
:101FC000EC0181B78F5FE7CFF1BEDF91CF911F9119
:0E1FD0000F91FF90EF90DF900895F894FFCFEF
:021FDE00FF5AA8
:04000003000014C025
:00000001FF
