:100000009EC00000B7C00000B5C00000B3C0000033
:10001000B1C00000AFC00000ADC00000ABC0000028
:10002000A9C00000A7C00000A5C00000FCC30000DC
:10003000A1C400009FC000009DC000009BC0000044
:1000400099C0000097C0000095C0000093C0000058
:1000500091C000008FC000008DC00000C6C100002C
:1000600089C0000087C0000085C0000083C0000078
:1000700081C00000160538052206380522067A05DB
:1000800097052206EA05FC052403470065006E007B
:10009000750069006E006F0020004D00650067006C
:1000A00061002000320035003600300000003A03C5
:1000B000410072006400750069006E006F0020004E
:1000C0004C004C00430020002800770077007700A8
:1000D0002E00610072006400750069006E006F0000
:1000E0002E006300630029000000040309040902D4
:1000F0003E00020100C032090400000102020100BA
:100100000524000110042402060524060001070549
:1001100082030800FF09040100020A00000007052D
:100120000402400001070583024000011201100192
:10013000020000084123420201000102DC011124F7
:100140001FBECFEFD2E0DEBFCDBF11E0A0E0B1E037
:10015000EEE4FFE002C005900D92A631B107D9F799
:1001600012E0A6E1B1E001C01D92AF32B107E1F7A4
:1001700064D0EBC645CFFC01E058FF4FA081B181B0
:100180006C93A081B1819D012F5F3F4F318320830C
:100190002E173F0721F412969C938E9311972FB739
:1001A000F894FC01EC57FF4F80818F5F80832FBF55
:1001B0000895DC01AE57BF4FED91FC91119741912D
:1001C0001196FC93EE939C0120583F4FE217F307E2
:1001D00011F48D939C932FB7F894FC01EC57FF4FCB
:1001E0009081915090832FBF842F089584B7877F8B
:1001F00084BF88E10FB6F89480936000109260008D
:100200000FBE87E690E09093CD008093CC0086E00F
:100210008093CA001092C80088E18093C900539A65
:100220005A9A8AB180638AB98BB180638BB9F0D254
:1002300084E085BD5F9A579A0895D8DF2FB7F89468
:100240008EE991E090931F0280931E029093210209
:10025000809320022FBF2FB7F89489E191E090930B
:100260009A018093990190939C0180939B012FBFE9
:100270007894D3E09FB7F894809122029FBF803892
:1002800049F080E091E00ED697FD04C0682F8EE91A
:1002900091E071DF8FB7F894C0919D018FBFA8994D
:1002A00002C0C13658F1A89A80919D01882319F0A7
:1002B0005D98D0931601CC2349F089E191E079DF74
:1002C000682F80E091E093D5C150F5CF8091160161
:1002D000882341F08091160181508093160181118D
:1002E00001C05D9A80911701882341F08091170128
:1002F000815080931701811101C05C9A9FB7F894D7
:10030000809122029FBF882361F08EE991E051DF46
:100310009091C80095FFFCCF8093CE005C98D0935D
:10032000170180E091E0B0D59AD4A4CF80E091E0AD
:1003300011C580E091E0A5C41F93CF93DF93EC013A
:100340008C89813031F0823011F010E003C010E26E
:1003500001C010E38B89823009F418608D898730E1
:1003600031F0883031F0863029F4126003C0146017
:1003700001C016601092C9001092C8001092CA0005
:100380002F85388949895A89211581EE3807410519
:10039000510571F0CA01B9019695879577956795D2
:1003A00060587B47814E9F4FA8D52150310902C02C
:1003B00020E130E03093CD002093CC001093CA00B0
:1003C0008F859889A989BA898115914EA105B105B2
:1003D00011F480E001C082E08093C80088E9809336
:1003E000C900DF91CF911F9108951F920F920FB610
:1003F0000F9211242F933F934F935F936F937F93AB
:100400008F939F93AF93BF93EF93FF936091CE0031
:100410008EB3843019F489E191E0ADDEFF91EF9164
:10042000BF91AF919F918F917F916F915F914F910C
:100430003F912F910F900FBE0F901F901895FC01C8
:10044000858580FF02C05F9808955F9A0895292FDF
:1004500033272230310559F02330310569F021303E
:100460003105F9F482E190E02CE231E01EC08EE328
:1004700090E02EEE30E019C099278130910541F0CF
:100480008230910541F0892B61F4EAEEF0E005C07D
:10049000EEEAF0E002C0E8E8F0E0849190E09F012D
:1004A00004C080E090E020E030E0FA013183208356
:1004B000089528E030E040E02817390720F44F5F26
:1004C000220F331FF9CF842F8295807F0895809368
:1004D000E900EBEEF0E0808181608083EDEEF0E0FA
:1004E00010826093EC0040838091EE00881F882783
:1004F000881F08951092F40080E08093E900109224
:10050000F0001092E8001092ED009091EB009E7FB9
:100510009093EB008F5F853081F7089580912702DB
:1005200087FD05C08091E80080FF0DC010C080915C
:10053000E80082FD04C08EB38111F9CF0895809147
:10054000E8008B7707C08EB38111ECCF08958091BE
:10055000E8008E778093E800089585E69091EC009E
:1005600090FF05C09091E80090FF05C01BC09091DE
:10057000E80092FD17C09EB39923B1F09EB3953069
:10058000A9F09091EB0095FD13C09091E10092FFCE
:10059000E5CF9091E1009B7F9093E1008150F1F6CF
:1005A00084E0089580E0089582E0089583E008954E
:1005B00081E0089520912D0230912E0226173707F1
:1005C00048F06115710539F42091E8002E772093E9
:1005D000E80001C0B90130E06115710591F1209189
:1005E000E80023FD38C02091E80022FF06C080917A
:1005F000E80082FF29C080E008952EB3222369F12C
:100600002EB3253061F12091E80020FFE5CF209145
:10061000F200FC01CF016115710549F0283038F472
:1006200081918093F100615071092F5FF3CF31E028
:10063000283009F030E02091E8002E772093E80080
:10064000CBCF3111CCCFD3CF8EB3882331F08EB343
:10065000853069F604C081E0089582E0089583E062
:10066000089520912D0230912E022617370748F069
:100670006115710539F42091E8002E772093E80088
:1006800001C0B90130E06115710599F12091E800D0
:1006900023FD39C02091E80022FF06C08091E800C8
:1006A00082FF2AC080E008952EB3222371F12EB379
:1006B000253069F12091E80020FFE5CF2091F2007C
:1006C000FC01CF016115710551F0283040F484918F
:1006D0008093F100615071092F5F3196F2CF31E0C4
:1006E000283009F030E02091E8002E772093E800D0
:1006F000CACF3111CBCFD2CF8EB3882331F08EB396
:10070000853061F604C081E0089582E0089583E0B9
:1007100008956115710529F42091E8002B77209345
:10072000E8006115710549F12091E80023FD2AC018
:100730002EB3222359F12EB3253051F12091E80038
:1007400022FFF2CFFC018091F200882371F09F011B
:100750002F5F3F4FC9014091F10040836150710903
:1007600061157105C9F2F901EECFCF01D5CF8EB376
:10077000882361F08EB3853059F08091E80080FFC6
:10078000F6CF02C081E0089580E0089582E00895E8
:1007900083E0089542D044D01EBA109225021092F0
:1007A00024021092230284E089BD89B5826089BD4C
:1007B00009B400FEFDCF8091D800982F9F779093C9
:1007C000D80080688093D800809163008E7F8093EA
:1007D00063008091D8008F7D8093D8008091E000E5
:1007E0008E7F8093E0008091E1008E7F8093E10016
:1007F0008091E20081608093E2008091E100877F38
:100800008093E1008091E20088608093E200089587
:10081000C1DF81E08093260208951092E2000895DE
:100820001092E10008951F920F920FB60F921124BB
:100830002F933F934F935F936F937F938F939F93E8
:10084000AF93BF93EF93FF938091E10080FF1BC0B4
:100850008091E20080FF17C08091E1008E7F80933D
:10086000E1008091E2008E7F8093E2008091E200BF
:1008700080618093E2008091D80080628093D800EC
:1008800019BC1EBAEBD18091E10084FF29C0809190
:10089000E20084FF25C084E089BD89B5826089BDFE
:1008A00009B400FEFDCF8091D8008F7D8093D800E1
:1008B0008091E1008F7E8093E1008091E2008F7E45
:1008C0008093E2008091E20081608093E200809159
:1008D0002502882311F084E001C081E08EBBBED1E7
:1008E0008091E10083FF27C08091E20083FF23C055
:1008F0008091E100877F8093E10082E08EBB1092BF
:1009000025028091E1008E7F8093E1008091E200DA
:100910008E7F8093E2008091E20080618093E2000C
:10092000E9DD42E060E080E0D2DD8091F0008860A7
:100930008093F00093D18091E10082FF0AC0809102
:10094000E20082FF06C08091E1008B7F8093E1008E
:1009500085D1FF91EF91BF91AF919F918F917F9141
:100960006F915F914F913F912F910F900FBE0F901C
:100970001F9018951F920F920FB60F9211242F936C
:100980003F934F935F936F937F938F939F93AF9317
:10099000BF93CF93EF93FF93E9EEF0E0C081C77070
:1009A0001082E0EFF0E08081877F808378941CD014
:1009B000F894E9EEF0E01082A0EFB0E08C9188604E
:1009C0008C93C083FF91EF91CF91BF91AF919F9195
:1009D0008F917F916F915F914F913F912F910F90E8
:1009E0000FBE0F901F9018951F93CF93DF93CDB735
:1009F000DEB7AA970FB6F894DEBF0FBECDBFE7E211
:100A0000F2E08091F100819322E0EF32F207C9F722
:100A10002091270230912802832F90E08A3091059F
:100A200008F010C1FC01E65CFF4F89C2203881F05C
:100A3000223809F007C180912B0287708093E9006A
:100A40008091EB0085FB882780F91092E90006C0B1
:100A50008091230290912402911182609091E8008C
:100A6000977F9093E8008093F1001092F100BDC051
:100A7000822F8D7F09F0E6C0222319F0223061F029
:100A8000D2C080912902813009F0CDC0333009F005
:100A900080E08093240228C080912902811124C023
:100AA00020912B02277009F4BEC02093E9008091A9
:100AB000EB0080FFB8C08091EB00333011F480620E
:100AC00011C080618093EB0081E090E0022E01C0B4
:100AD000880F0A94EAF78093EA001092EA00809166
:100AE000EB0088608093EB001092E9008091E800B1
:100AF000877F7EC02111A6C0109129028091E80055
:100B0000877F8093E8000ADD8091E80080FD04C0C3
:100B10008EB38111F9CF87C0812F8F7711F093E0C9
:100B200001C092E09EBB80688093E3007CC02058A7
:100B3000223008F087C08091290290912A028C3DD2
:100B400023E0920781F583E08A838AE289834FB7A5
:100B5000F894DE01139620E03EE051E2E32FF0E04E
:100B600050935700E49120FF03C0E295EF703F5F80
:100B7000EF7090E39E0F9A3310F0E95C01C0E92F0B
:100B80008E2F90E08D939D932F5F243139F74FBFC7
:100B90008091E800877F8093E8006AE270E0CE01F0
:100BA000019608DD11C0AE014F5F5F4F60912B02CF
:100BB0004EDC0097C1F12091E800277F2093E800E8
:100BC000BC0189819A814DDD8091E8008B7780930B
:100BD000E80029C02038B1F58091E800877F809334
:100BE000E800809125028093F1008091E8008E77E3
:100BF0008093E80093DC17C0211124C09091290252
:100C0000923088F48091E800877F8093E800909389
:100C1000250284DC80912502882311F084E001C044
:100C200083E08EBB83DB8091E80083FF0DC0809161
:100C3000EB0080628093EB008091E800877F8093D7
:100C4000E80002C076DBEFCFAA960FB6F894DEBFBD
:100C50000FBECDBFDF91CF911F9108950895CF931F
:100C60008EB3882359F0C091E900C7701092E90053
:100C70008091E80083FDB8DEC093E900CF9108952C
:100C80000895CF93DF93EC018091E80083FF5FC06C
:100C9000888190E020912B0230912C02281739078F
:100CA00009F055C080912802813249F018F4803251
:100CB000C9F04DC0823261F18332C9F148C08091E0
:100CC0002702813A09F043C08091E800877F809332
:100CD000E80067E070E0CE010F966CDC8091E800E0
:100CE0008B7713C080912702813289F58091E800CB
:100CF000877F8093E80067E070E0CE010F9609DD02
:100D0000CE011ADB8091E8008E778093E8001FC047
:100D1000809127028132D9F48091E800877F809307
:100D2000E800809129028D87CE0189DB0DC080917A
:100D30002702813261F48091E800877F8093E80088
:100D400060912902CE019CDFDF91CF91E7CBDF914B
:100D5000CF9108950F931F93CF93DF93EC01FC0184
:100D60003D9689E0DF011D928A95E9F72A813B8152
:100D70008C81882311F014E001C010E00981C901C1
:100D800098DB412F482B426061E8802FA0DB88234D
:100D900041F12E813F818885882311F014E001C044
:100DA00010E00D81C90185DB412F482B426060E8CE
:100DB000802F8DDB8823A9F02A853B858C858823AD
:100DC00011F014E001C010E0C985C90172DB412FA8
:100DD000482B426061EC8C2FDF91CF911F910F91D6
:100DE00076CB80E0DF91CF911F910F910895CF9343
:100DF000C62F2EB32430E9F4FC0147855089618960
:100E00007289452B462B472BA1F081818093E90005
:100E10008091E80085FF04C0C093F10080E00AC023
:100E20008091E8008E778093E80097DB8823A1F318
:100E300001C082E0CF9108952EB3243019F5FC0152
:100E40004785508961897289452B462B472BD1F004
:100E500081818093E9008091F200882389F090914C
:100E6000E8008091E8008E778093E80095FD08C047
:100E700074DB811108C08091E8008E778093E800D0
:100E800080E0089582E008952EB3243051F4FC01EF
:100E90004785508961897289452B462B472B09F07C
:100EA000CBCF08952EB3243019F08FEF9FEF089524
:100EB000FC014785508961897289452B462B472B58
:100EC000A1F385818093E9008091E80082FFEDCF56
:100ED0008091F200882321F02091F10030E002C0DF
:100EE0002FEF3FEF8091F200811105C08091E80063
:100EF0008B778093E800C9010895A1E21A2EAA1BFE
:100F0000BB1BFD010DC0AA1FBB1FEE1FFF1FA217B9
:100F1000B307E407F50720F0A21BB30BE40BF50BB6
:100F2000661F771F881F991F1A9469F7609570953F
:100F3000809590959B01AC01BD01CF010895EE0F06
:0E0F4000FF1F0590F491E02D0994F894FFCF67
:100F4E000003400000044000000208000000000002
:060F5E000000000000008D
:00000001FF
