:100000000C9462000C948A000C948A000C948A0070
:100010000C948A000C948A000C948A000C948A0038
:100020000C942A040C948A000C948A000C948A0084
:100030000C948A000C948A000C948A000C948A0018
:100040000C94E0030C948A000C94AE030C94880387
:100050000C948A000C948A000C948A000C948A00F8
:100060000C948A000C948A00000000080002010031
:100070000003040700000000000000000000000072
:10008000250028002B0000000000240027002A0083
:1000900000000000230026002900040404040404D6
:1000A0000404020202020202030303030303010227
:1000B00004081020408001020408102001020408F6
:1000C0001020DD0411241FBECFEFD8E0DEBFCDBF6E
:1000D00024E0A2E4B2E001C01D92A131B207E1F731
:1000E00012E0A0E0B1E0E4EDFBE102C005900D926A
:1000F000A234B107D9F710E0C2E6D0E004C02197DE
:10010000FE010E94F00BC136D107C9F70E941F05FE
:100110000C94E80D0C940000A4E0B3E011961C923E
:100120001197EEEAF0E0E4911496EC931497EAE963
:10013000F0E0E491F0E0EE0FFF1FE057FF4F8591F4
:10014000949113969C938E93129708950F931F93F7
:10015000CF93DF93E091E303F091E40340916602D3
:10016000808510E0481708F064C0142F11700091CA
:10017000650201114FC0842F90E0880F991FE80F8E
:10018000F91F0184F285E02D2CEE3FEF112311F0D1
:1001900024E130E0C0916302D09164022C0F3D1F36
:1001A000C90163E470E00E94DC0BE617F70760F01A
:1001B000C90168E270E00E94DC0B6F5F7F4F81E055
:1001C00090E06E177F0710F52C0F3D1FC90163E407
:1001D00070E00E94DC0BE617F70750F0C90168E2F7
:1001E00070E00E94DC0B6F5F7F4F6E177F0760F43B
:1001F0002C0F3D1FC90163E470E00E94DC0BE61781
:10020000F707E8F41FEF15C082E090E090936202D8
:10021000809361020F5F009365028091610290916B
:1002200062020817190628F0109265024F5F40938A
:100230006602812FDF91CF911F910F910895C9011F
:1002400068E270E00E94DC0B6F5F7F4F6E177F07E4
:10025000C8F283E090E0DACFAF92BF92CF92DF9204
:10026000EF92FF920F931F93CF93DF936C017B016B
:100270008B01040F151FEB015E01AE18BF08C017FC
:10028000D10759F06991D601ED91FC910190F0816F
:10029000E02DC6010995892B79F7C501DF91CF9132
:1002A0001F910F91FF90EF90DF90CF90BF90AF9094
:1002B0000895FC01538D448D252F30E0842F90E06C
:1002C000821B930B541710F0CF9608950197089551
:1002D000FC01918D828D981761F0A28DAE0FBF2F1A
:1002E000B11D5D968C91928D9F5F9F73928F90E070
:1002F00008958FEF9FEF0895FC01918D828D9817DF
:1003000031F0828DE80FF11D858D90E008958FEF1B
:100310009FEF0895FC01918D228D892F90E0805CE4
:100320009F4F821B91098F739927089587E692E06A
:100330000E948A0121E0892B09F420E0822F089590
:1003400080E090E0892B29F00E94960181110C94A5
:1003500000000895FC01A48DA80FB92FB11DA35A68
:10036000BF4F2C91848D90E001968F739927848FD5
:10037000A689B7892C93A089B1898C9183708064F8
:100380008C93938D848D981306C00288F389E02D99
:1003900080818F7D80830895EF92FF920F931F934A
:1003A000CF93DF93EC0181E0888F9B8D8C8D981328
:1003B0001AC0E889F989808185FF15C09FB7F89434
:1003C000EE89FF896083E889F98980818370806480
:1003D00080839FBF81E090E0DF91CF911F910F91CB
:1003E000FF90EF900895F62E0B8D10E00F5F1F4FDA
:1003F0000F731127E02E8C8D8E110CC00FB607FCE9
:10040000FACFE889F989808185FFF5CFCE010E9476
:10041000AA01F1CFEB8DEC0FFD2FF11DE35AFF4F39
:10042000F0829FB7F8940B8FEA89FB898081806204
:10043000CFCFCF93DF93EC01888D8823B9F0AA89C1
:10044000BB89E889F9898C9185FD03C0808186FD8F
:100450000DC00FB607FCF7CF8C9185FFF2CF8081DE
:1004600085FFEDCFCE010E94AA01E9CFDF91CF91A8
:10047000089590E0FC01E859FF4F2491FC01E255FA
:10048000FF4F3491FC01E656FF4FE491EE23C9F093
:10049000222339F0233001F1A8F4213019F1223060
:1004A00029F1F0E0EE0FFF1FE458FF4FA591B49142
:1004B0008FB7F894EC91611126C030953E233C93A0
:1004C0008FBF08952730A9F02830C9F0243049F7AC
:1004D000809180008F7D03C0809180008F77809312
:1004E0008000DFCF84B58F7784BDDBCF84B58F7D6F
:1004F000FBCF8091B0008F778093B000D2CF8091F6
:10050000B0008F7DF9CF3E2BDACFFC0101900020A7
:10051000E9F73197AF01481B590BBC0187E692E020
:100520000C942C017F928F929F92AF92BF92CF92A8
:10053000DF92EF92FF920F931F93CF93DF93782E6A
:10054000EA01E091E303F091E4033F968B010C5E36
:100550001F4F43E4C42ED12CC801B6010E94DC0B0E
:100560005B0158E2E52EF12CC801B7010E94DC0BBB
:100570008B010F5F1F4F6497CE01B6010E94DC0B09
:100580004B01CE01B7010E94DC0BEB0121962451F7
:100590003109C901B6010E94DC0B6B01C901B70129
:1005A0000E94DC0B6F5F7F4F20E030E0A901A0E0EC
:1005B000808191818A159B0570F10817190758F100
:1005C000828193818815990518F1C817D90728F1F8
:1005D000220F331F441F551F21603496AF5F7A12DC
:1005E000E7CF2093DF033093E0034093E103509380
:1005F000E20381E0DF91CF911F910F91FF90EF9087
:10060000DF90CF90BF90AF909F908F907F90089594
:100610008C159D0510F480E0EDCF68177907D8F3AD
:10062000220F331F441F551FD8CF0F931F93CF9313
:10063000DF93EC0188819981009759F02A813B81F1
:100640002617370730F081E0DF91CF911F910F918E
:1006500008958B016F5F7F4F0E941B0D009759F02B
:10066000998388831B830A832C813D81232B59F72F
:10067000FC011082E8CF80E0E7CFCF93DF93EC015D
:1006800088819981009711F00E94920C198218823A
:100690001D821C821B821A82DF91CF910895EF92F6
:1006A000FF920F931F93CF93DF93EC017B0119828D
:1006B00018821B821A821D821C82FB01019000207D
:1006C000E9F731978F01061B170BB8010E9415033C
:1006D000811109C0CE01DF91CF911F910F91FF9041
:1006E000EF900C943D031D830C83B70188819981A1
:1006F000DF91CF911F910F91FF90EF900C94E10D3E
:10070000FC0180819181009711F00C94920C089566
:100710001F920F920FB60F9211242F933F934F9376
:100720005F936F937F938F939F93AF93BF93EF9359
:10073000FF9387E692E00E94AA01FF91EF91BF919B
:10074000AF919F918F917F916F915F914F913F9169
:100750002F910F900FBE0F901F9018951F920F9220
:100760000FB60F9211242F938F939F93EF93FF93C4
:10077000E0917702F09178028081E0917D02F09122
:100780007E0282FD1BC09081809180028F5F8F73FB
:1007900020918102821741F0E0918002F0E0E95956
:1007A000FD4F958F80938002FF91EF919F918F91E4
:1007B0002F910F900FBE0F901F9018958081F4CF4E
:1007C0001F920F920FB60F9211242F933F938F9386
:1007D0009F93AF93BF938091470290914802A0915D
:1007E0004902B0914A023091460223E0230F2D378F
:1007F00058F50196A11DB11D209346028093470232
:1008000090934802A0934902B0934A028091420219
:1008100090914302A0914402B09145020196A11D1E
:10082000B11D8093420290934302A0934402B0937F
:100830004502BF91AF919F918F913F912F910F9062
:100840000FBE0F901F90189526E8230F0296A11D4A
:10085000B11DD2CF1F920F920FB60F9211242F937A
:100860003F934F935F936F937F938F939F93AF9338
:10087000BF93EF93FF93E0910603F09107039081FC
:100880008091080398232091090330910A032F3F98
:10089000320731F02F5F3F4F30930A032093090353
:1008A00080910403811135C0911116C02091090374
:1008B00030910A032536310558F010920B0330931E
:1008C0000E0320930D0381E080930C0380930403B7
:1008D00010920A03109209038091F103882341F0DA
:1008E0008091F003911161C061E0811161C02D9A86
:1008F000FF91EF91BF91AF919F918F917F916F91F8
:100900005F914F913F912F910F900FBE0F901F90CD
:100910001895809104038130A1F49923E9F2E091C4
:100920000C038E0F80930C03F0E0EE0FFF1FEC5FC3
:10093000FC4F2091090330910A033287218782E01E
:10094000C5CF80910403823039F5911119C0E0912F
:100950000C0381E0E43620F080930B0383E0B6CFF4
:100960008E0F80930C03F0E0EE0FFF1FEC5FFC4F47
:100970002091090330910A033287218781E0A6CFB5
:100980002091090330910A032536310508F4A4CFDC
:1009900083E080930403A0CF80910403833009F0A7
:1009A0009BCF992309F494CF97CF882321F060E05F
:1009B0000E9439029DCF2D989BCFCF93DF93E7E61E
:1009C000F2E01382128288EE93E0A0E0B0E084832C
:1009D0009583A683B7838AE091E09183808385EC39
:1009E00090E09587848784EC90E09787868780ECF9
:1009F00090E0918B808B81EC90E0938B828B82ECEA
:100A000090E0958B848B86EC90E0978B868B118E93
:100A1000128E138E148EC4E0D3E0D0930104C093E1
:100A200000040E948C00E0EFF3E010821182D0936A
:100A3000E403C093E303DF91CF910C948C00CF9338
:100A4000DF93CDB7DEB7C359D1090FB6F894DEBF37
:100A50000FBECDBF789484B5826084BD84B58160BB
:100A600084BD85B5826085BD85B5816085BD809179
:100A70006E00816080936E001092810080918100F1
:100A800082608093810080918100816080938100E9
:100A9000809180008160809380008091B1008460AB
:100AA0008093B1008091B00081608093B00080910C
:100AB0007A00846080937A0080917A0082608093CB
:100AC0007A0080917A00816080937A0080917A0028
:100AD000806880937A001092C100E0917702F091D3
:100AE000780282E08083E0917302F09174021082B8
:100AF000E0917502F09176029FEC908310927F0254
:100B0000E0917B02F0917C0296E09083E091790283
:100B1000F0917A02908190619083E0917902F09156
:100B20007A02908198609083E0917902F0917A0244
:100B3000908190689083E0917902F0917A0290819F
:100B40009F7D9083F8948093B0008093B10084E6F9
:100B50008093B3008093B4001092B20084E080933D
:100B6000700080910403833011F410920403789490
:100B70008091050390E0FC01E255FF4F24918656D9
:100B80009F4FFC0184918823C9F090E0880F991F42
:100B9000FC01EA57FF4F45915491FC01E458FF4F87
:100BA000A591B4919FB7F894FA0180812095822392
:100BB00080838C91E22FE823EC939FBFCC24CA94CE
:100BC000DC2C76018E010F5F1F4F80910403833070
:100BD00009F059C580914B0281110BC088E191E069
:100BE0000E94850284EB91E00E94850281E080935F
:100BF0004B028DE093E090935D0280935C028091C4
:100C00000C0390E090935F0280935E0220910B03AF
:100C1000222321F010920B0310920C0320910B035E
:100C200020936002109254021092550210925602C4
:100C30001092570220E82093DE0320910F03309199
:100C40001003265831092C35310508F062C0843074
:100C5000910521F580911103909112038197489796
:100C600008F057C0809113039091140308970897D8
:100C700008F04FC010925802C0925402D092550210
:100C8000E0925602F092570281E88093DE0387E0FB
:100C900090E09093D6038093D5031AC184349105D4
:100CA000C1F58091110390911203825491098F979D
:100CB00080F520E332E040E956E060E372E080E254
:100CC0000E949202882329F1E0915C02F0915D027A
:100CD000EA57FF4F8081918108970897D0F480915F
:100CE000DF039091E003A091E103B091E2038093D0
:100CF000540290935502A0935602B093570280E29B
:100D00008093580287E090E09093510280935002C4
:100D1000C0CF40915E0250915F024A31510508F404
:100D200053C0E0915C02F0915D02808191810A974D
:100D300080F410925802C0925402D0925502E09270
:100D40005602F092570281E08093DE0382E190E048
:100D5000A0CF8281938184974A97B0F523E030E059
:100D600060E0812C912C540184819581089708972B
:100D700058F58681978182319105E0F0809720F5C2
:100D8000880C991CAA1CBB1C689480F86F5F2E5FAE
:100D90003F4F34962417350738F3609358028092FA
:100DA000540290925502A0925602B092570282E1EC
:100DB00090E0AACF8930910538F0419728F4880C4B
:100DC000991CAA1CBB1CE2CF81E08093660289E7D4
:100DD00093E09093640280936302109265020E94F4
:100DE000A600813009F0D2C1812C912C5401712CC4
:100DF000E091E303F091E403908580916602891706
:100E0000E0F40E94A600682E0E94A60061100BC0AC
:100E1000813009F0BBC1880C991CAA1CBB1C6894CA
:100E200080F87394E5CFF1E06F12B0C18111AEC1CB
:100E3000880C991CAA1CBB1CF4CF7092DD03809215
:100E4000DF039092E003A092E103B092E203882DC9
:100E50008F7390E09093DA038093D903940146E076
:100E6000369527954A95E1F72F7133273093D803AC
:100E70002093D703940122273071232B31F4805C17
:100E80009F4F9093DA038093D90380E893FC88E81E
:100E90008093DE0381859285833E984028F480917B
:100EA000DE0381608093DE038EE090E09093D603B2
:100EB0008093D5037092580280925402909255020A
:100EC000A0925602B0925702909351028093500222
:100ED0008091540290915502A0915602B091570210
:100EE00080934C0290934D02A0934E02B0934F0218
:100EF00067EB71E0CE0182579F4F0E944F036FEB6B
:100F000071E0C8010E944F0366EC71E0CE010796C4
:100F10000E944F036AEC71E0CE010D960E944F03D0
:100F20006EEC71E0CE0143960E944F0362ED71E0DA
:100F3000CE0149960E944F0367ED71E0CE014F96B6
:100F40000E944F0361EE71E0CE0185960E944F032F
:100F500065EE71E0CE018B960E944F036DEE71E05D
:100F6000CE01C1960E944F0365EF71E0CE01C79696
:100F70000E944F0362E072E0CE01CD960E944F03C3
:100F800065E072E0CE018D5B9F4F0E944F036BE0E6
:100F900072E0CE01875B9F4F0E944F0366E172E0D3
:100FA000CE01815B9F4F0E944F036BE172E0CE0147
:100FB0008B5A9F4F0E944F0361E272E0CE01855A27
:100FC0009F4F0E944F0367E272E0CE018F599F4FFF
:100FD0000E944F036EE272E0CE0189599F4F0E943A
:100FE0004F0380915002909151029C012150310990
:100FF00021313105E0F426E0289FF001299FF00D12
:101000001124E00FF11FA080B180A114B10451F0B0
:1010100084809580B401CE0182579F4F0E941503B2
:1010200081113EC3CE0182579F4F0E943D0366E36C
:1010300072E0CE0183599F4F0E944F03C257DF4F8A
:1010400088809980CE58D0408114910409F438C327
:10105000CE56DF4FA880B980C259D040A114B10448
:1010600001F1E3968EAD9FADE397A80EB91EB501D1
:10107000CE0183599F4F0E941503882309F420C392
:10108000AF962EAD3FADAF97E3968EAD9FADE39794
:10109000B401820F931F0E94E10DE396BFAEAEAE86
:1010A000E397E396AEACBFACE39792E0A90EB11C18
:1010B000B501CE0183599F4F0E941503811106C3CC
:1010C000CE0183599F4F0E943D03E3964EAD5FAD25
:1010D000E397AF966EAD7FADAF9787E692E00E9443
:1010E0002C0184EB91E00E948502CE0183599F4F31
:1010F0000E94800380904C0290904D02A0904E027E
:10110000B0904F02C357DF4F1882CD58D0408DE6C4
:1011100090E08C0F9D1F8096B501A4014F7055275C
:101120006627772724E0B694A794979487942A9506
:10113000D1F74A300CF0DDC2405DFC014293CF0193
:1011400081149104A104B10439F7EF2B11F00E942E
:10115000850284EB91E00E94850280910403833034
:1011600011F410920403CE0183599F4F5C0196E065
:10117000A91AB108C5010E9480030A151B05B9F719
:10118000CE0182579F4F0E9480037DC2E091E3030E
:10119000F091E4038385948588974D9708F048C0C3
:1011A000858596850C970B9708F042C083E0809365
:1011B00066028CEB91E0909364028093630210923C
:1011C00065020E94A600813099F50E94A600782E43
:1011D00081112EC0812C912C5401E091E303F091F8
:1011E000E403908580916602891708F06BC00E9425
:1011F000A600582E83E07816B9F00E94A600682E4B
:1012000093E0791204C00E94A600681211C0E1E0C8
:101210005E124EC061100CC0880C991CAA1CBB1C2D
:10122000689480F87394D9CF0E94A600581629F3C9
:1012300080915E0290915F028236910508F488C029
:10124000E0915C02F0915D0282819381C397859762
:1012500008F07EC0848195814A97439708F078C052
:1012600020EB31E040E155E060EB71E08CE20E9460
:101270009202882309F46CC080E380935802809125
:10128000DF039091E003A091E103B091E20380932A
:10129000540290935502A0935602B093570282E0F5
:1012A00090E2909353028093520288E090E02CCD1C
:1012B0005110BECFF1E06F12BBCF880C991CAA1C55
:1012C000BB1CB0CF7092DD038092DF039092E003ED
:1012D000A092E103B092E203282D30E0892D93E241
:1012E0009715F8F080E88093DE033093DA032093BB
:1012F000D903892D90E09093D8038093D703A0FE63
:1013000003C088E88093DE03818592858A389C40FB
:1013100028F48091DE0381608093DE038FE090E00B
:10132000C5CD90E99093DE0397FE03C098E99093B2
:10133000DE033093DA032093D9038F7790E0909304
:10134000D8038093D703B092DC03A092DB03DCCFF9
:1013500080915E0290915F02CC97E9F5E0915C028A
:10136000F0915D0282819381865891098C359105B7
:1013700090F584819581825491098F9760F520E3DF
:1013800032E040E956E060E372E08CE10E949202B4
:10139000882309F1E0915C02F0915D02EA58FF4F69
:1013A0008081918108970897B0F48091DF03909134
:1013B000E003A091E103B091E20380935402909383
:1013C0005502A0935602B09357028CE180935802C5
:1013D00086E090E099CC40915E0250915F02E091EE
:1013E0005C02F0915D02828193814232510501F5E8
:1013F0009C012850310927303105D0F4DF01AE5B64
:10140000BF4F2D913C91285031092730310580F490
:1014100010925802C0925402D0925502E0925602A5
:10142000F092570281E08093DE0385E090E031CCBA
:101430008D57910987359105A0F54432510588F102
:1014400084819581CE978C9760F52EE032E04AE258
:1014500056E06EE072E080E10E949202882309F17A
:10146000E0915C02F0915D02EA5BFF4F8081918127
:1014700008970797B0F48091DF039091E003A09163
:10148000E103B091E2038093540290935502A0933C
:101490005602B093570280E18093580285E090E0B5
:1014A00033CCE0915C02F0915D02828193818154A2
:1014B00091098F9708F04CC080915E0290915F0275
:1014C00084309105D9F4848195818197489708F0FB
:1014D0003FC08681978108970897D0F510925802EF
:1014E000C0925402D0925502E0925602F0925702F6
:1014F00081E08093DE0380E190E0CBCB84349105E2
:1015000038F184819581815491098E9708F526E2FE
:1015100032E042E756E066E272E080E20E94920228
:101520008823B1F08091DF039091E003A091E10363
:10153000B091E2038093540290935502A093560217
:10154000B093570280E28093580280E190E0DCCBB8
:10155000E091E303F091E4038085823279F5E09134
:101560005C02F0915D02828193810497059730F5CA
:10157000848195810B970A9708F52CE033E04CE1C4
:1015800057E064E071E08FE00E9492028823B1F09E
:101590008091DF039091E003A091E103B091E20319
:1015A0008093540290935502A0935602B093570231
:1015B0008FE08093580283E090E0A6CB60905E02BB
:1015C00070905F02F6E06F16710408F456C0E09167
:1015D0005C02F0915D02329673E0A72EB12C25ECEF
:1015E0003DE94CE151E8AAE05A2E84819581219091
:1015F0003190589E4001599E900C1124D10163E016
:10160000AA0FBB1F6A95E1F78A169B06A0F1529CB0
:10161000B001539C700D1124A3E0880F991FAA9567
:10162000E1F7992493946817790710F462E0962EF5
:1016300063E971E080E091E00E947B0B9B01AC01CB
:1016400029258FEFA81AB80A6A147B0471F6209333
:10165000540230935502409356025093570280E251
:101660008093580210925102109250021092D603A9
:101670001092D5032DCC912CDBCF809104038330C5
:1016800011F41092040380E090E0892B09F49DCAC4
:101690000E949601882309F495CA0E94000092CA0C
:1016A000CE56DF4F99828882C259D040B501C257C9
:1016B000DF4F88819981CE58D0400E94E10DB7CC90
:1016C000CE0183599F4F0E943D03EBCCAF962EADC8
:1016D0003FADAF97E3968EAD9FADE3976FE372E0BA
:1016E000820F931F0E94E10DE396BFAEAEAEE3976B
:1016F000ECCC495C22CDDB018F939F930E948B0B36
:10170000BF91AF91A29F800D911DA39F900DB29F9D
:10171000900D112408950E94CD0BA59F900DB49FAC
:10172000900DA49F800D911D112408952F923F923A
:101730004F925F926F927F928F929F92AF92BF92E1
:10174000CF92DF92EF92FF920F931F93CF93DF938D
:10175000CDB7DEB7CA1BDB0B0FB6F894DEBF0FBEEA
:10176000CDBF09942A88398848885F846E847D8437
:101770008C849B84AA84B984C884DF80EE80FD8039
:101780000C811B81AA81B981CE0FD11D0FB6F894AF
:10179000DEBF0FBECDBFED010895A29FB001B39F84
:1017A000C001A39F700D811D1124911DB29F700D6A
:1017B000811D1124911D0895AA1BBB1B51E107C077
:1017C000AA1FBB1FA617B70710F0A61BB70B881FD1
:1017D000991F5A95A9F780959095BC01CD01089560
:1017E000EE0FFF1F0590F491E02D09940F931F93C6
:1017F000CF93DF938230910510F482E090E0E09186
:101800000F04F091100430E020E0B0E0A0E0309749
:1018100099F42115310509F44AC0281B390B2430ED
:101820003105D8F58A819B816115710589F1FB012C
:1018300093838283FE0111C0408151810281138113
:1018400048175907E0F04817590799F4109761F0C5
:1018500012960C93129713961C933296CF01DF9138
:10186000CF911F910F91089500930F0410931004CE
:10187000F4CF2115310551F04217530738F0A90173
:10188000DB019A01BD01DF01F801C1CFEF01F9CF02
:101890009093100480930F04CDCFFE01E20FF31F4D
:1018A000819391932250310939832883D7CF209196
:1018B0000D0430910E04232B41F42091020130914C
:1018C000030130930E0420930D0420910001309108
:1018D00001012115310541F42DB73EB740910401B6
:1018E00050910501241B350BE0910D04F0910E047D
:1018F000E217F307A0F42E1B3F0B2817390778F0E7
:10190000AC014E5F5F4F2417350748F04E0F5F1F45
:1019100050930E0440930D04819391939FCFF0E078
:10192000E0E09CCFCF93DF930097E9F0FC01329782
:1019300013821282A0910F04B0911004ED0130E0E7
:1019400020E01097A1F420813181820F931F209114
:101950000D0430910E042817390709F061C0F09387
:101960000E04E0930D04DF91CF910895EA01CE17A4
:10197000DF07E8F54A815B819E0141155105B1F70A
:10198000E901FB83EA8349915991C40FD51FEC17F4
:10199000FD0761F4808191810296840F951FE90112
:1019A00099838883828193819B838A83F0E0E0E03E
:1019B00012968D919C9113970097B9F52D913C91BA
:1019C0001197CD010296820F931F20910D04309143
:1019D0000E042817390739F6309751F51092100484
:1019E00010920F04B0930E04A0930D04BCCFD383C8
:1019F000C28340815181840F951FC817D90761F4B4
:101A00004E5F5F4F88819981480F591F51834083F2
:101A10008A819B81938382832115310509F0B0CFA0
:101A2000F0931004E0930F049ECFFD01DC01C0CFC2
:101A300013821282D7CFB0E0A0E0E1E2FDE00C9487
:101A4000980B8C01009751F4CB010E94F60B8C018E
:101A5000C801CDB7DEB7E0E10C94B40BFC01E60F92
:101A6000F71F9C0122503109E217F30708F49DC0CB
:101A7000D901CD91DC911197C617D70798F0C530E1
:101A8000D10530F3CE0104978617970708F3C61BDC
:101A9000D70B2297C193D1936D937C93CF010E9472
:101AA000920CD6CF5B01AC1ABD0A4C018C0E9D1E68
:101AB000A0910F04B0911004512C412CF12CE12C79
:101AC000109731F580910D0490910E0488159905B9
:101AD00009F05CC04616570608F058C08091000116
:101AE00090910101009741F48DB79EB74091040198
:101AF00050910501841B950BE817F90708F055C0B4
:101B0000F0930E04E0930D04F90171836083A0CF7C
:101B10008D919C91119712966C90129713967C90D0
:101B20001397A815B90559F56C0142E0C40ED11CF4
:101B3000CA14DB0420F1AC014A195B09DA011296E0
:101B4000159780F06282738251834083D9016D932F
:101B50007C93E114F10471F0D7011396FC93EE939A
:101B6000129776CF22968C0F9D1FF9019183808367
:101B7000F301EFCFF0931004E0930F0469CF481600
:101B8000590608F42C017D01D3019ACFCB010E94A4
:101B9000F60B7C01009749F0AE01B8010E94D80D08
:101BA000C8010E94920C870153CF10E000E050CF93
:101BB000FB01DC0102C001900D9241505040D8F76A
:101BC0000895FB01DC0101900D920020E1F70895DA
:041BD000F894FFCFB7
:101BD40000001104800000000000CC012C01590118
:101BE40019028A0168017C015468652066756E6378
:101BF40074696F6E206465636F646528267265730B
:101C0400756C747329292069732064657072656327
:101C14006174656420616E64206D6179206E6F74F7
:101C240020776F726B2061732065787065637465CB
:101C34006421204A75737420757365206465636F2D
:101C44006465282920776974686F75742061207031
:101C54006172616D6574657220616E6420497252AF
:101C6400656365697665722E6465636F646564494E
:101C740052446174612E3C6669656C646E616D6585
:101C84003E202E000D0A00554E4B4E4F574E005528
:101C94004E555345440052433500524336004E4599
:101CA4004300534F4E590050414E41534F4E494308
:101CB400004A56430053414D53554E470057485927
:101CC4004E54455200414957415F52435F543530A9
:101CD40031004C470053414E594F004D4954535520
:101CE40042495348490044495348005348415250DB
:101CF4000044454E4F4E0050524F4E544F004C45F9
:101D0400474F5F504600495220545950453A0020ED
:021D14002000AD
:107E0000112484B714BE81FFF0D085E080938100F7
:107E100082E08093C00088E18093C10086E0809377
:107E2000C20080E18093C4008EE0C9D0259A86E02C
:107E300020E33CEF91E0309385002093840096BBD3
:107E4000B09BFECF1D9AA8958150A9F7CC24DD24C4
:107E500088248394B5E0AB2EA1E19A2EF3E0BF2EE7
:107E6000A2D0813461F49FD0082FAFD0023811F036
:107E7000013811F484E001C083E08DD089C08234E0
:107E800011F484E103C0853419F485E0A6D080C0E4
:107E9000853579F488D0E82EFF2485D0082F10E0AE
:107EA000102F00270E291F29000F111F8ED06801E7
:107EB0006FC0863521F484E090D080E0DECF843638
:107EC00009F040C070D06FD0082F6DD080E0C81688
:107ED00080E7D80618F4F601B7BEE895C0E0D1E017
:107EE00062D089930C17E1F7F0E0CF16F0E7DF06D8
:107EF00018F0F601B7BEE89568D007B600FCFDCFD4
:107F0000A601A0E0B1E02C9130E011968C91119780
:107F100090E0982F8827822B932B1296FA010C0160
:107F200087BEE89511244E5F5F4FF1E0A038BF0790
:107F300051F7F601A7BEE89507B600FCFDCF97BE46
:107F4000E89526C08437B1F42ED02DD0F82E2BD052
:107F50003CD0F601EF2C8F010F5F1F4F84911BD097
:107F6000EA94F801C1F70894C11CD11CFA94CF0C13
:107F7000D11C0EC0853739F428D08EE10CD085E9AC
:107F80000AD08FE07ACF813511F488E018D01DD067
:107F900080E101D065CF982F8091C00085FFFCCF94
:107FA0009093C60008958091C00087FFFCCF809118
:107FB000C00084FD01C0A8958091C6000895E0E648
:107FC000F0E098E1908380830895EDDF803219F02E
:107FD00088E0F5DFFFCF84E1DECF1F93182FE3DFCA
:107FE0001150E9F7F2DF1F91089580E0E8DFEE27F6
:047FF000FF270994CA
:027FFE00040479
:0400000300007E007B
:00000001FF
