:107000005FC0000078C0000076C0000074C00000BF
:1070100072C0000070C000006EC000006CC00000B4
:107020006AC0000068C00000DAC4000064C000004C
:1070300062C0000060C000005EC000005CC00000D4
:107040005AC000009DC0000056C0000054C000009F
:1070500052C0000050C000004EC000004CC00000F4
:107060004AC0000048C0000046C0000044C0000004
:1070700042C0000040C000003EC000003CC0000014
:107080003AC0000038C0000036C0000034C0000024
:1070900032C0000030C000002EC000002CC0000034
:1070A0002AC0000028C0000026C00000583E713EE3
:1070B000153F713E153FA63EC83E153FE83EFA3EDD
:1070C00011241FBECFEFDAE0DEBFCDBF11E0A0E09C
:1070D000B1E0E4EBFEE702C005900D92A23BB107E0
:1070E000D9F721E0A2EBB1E001C01D92AB3CB207A1
:1070F000E1F720D3DDC684CF84E08093E90080915E
:10710000E80085FD0EC08091E8008B778093E80051
:107110008091E80082FDF3CF8EB38111F9CF80E03A
:1071200008958091F100089593E09093E900909183
:10713000E80095FF0AC08093F1005D9884E690E036
:107140009093B9018093B80108959091E8009E77DB
:107150009093E8009091E80090FDEDCF9EB39111DF
:10716000F9CF0895F89410926F001092810081E099
:1071700085BF15BE47985D9A289A0C940000089523
:107180001F920F920FB60F9211242F938F939F93FC
:10719000EF93FF9310928500109284008091B801C4
:1071A0009091B901009741F001979093B9018093B4
:1071B000B801892B09F45D9A8091B6019091B701CD
:1071C000009741F001979093B7018093B601892B06
:1071D00009F4289A8091B2019091B301019690939D
:1071E000B3018093B201E0E0F0E0859194910196C3
:1071F00049F08091B4019091B50101969093B50149
:107200008093B401FF91EF919F918F912F910F90F7
:107210000FBE0F901F90189542E061EC82E05AD3A8
:1072200042E161E883E056D342E160E884E052C382
:107230008091C301982F9F77913239F59091C401C5
:10724000903291F0913209F5813AF9F48091E80099
:10725000877F8093E80067E070E082E091E070D47F
:107260008091E8008B770FC0813279F48091E8003B
:10727000877F8093E80067E070E082E091E0B9D416
:107280008091E8008E778093E80008954F925F9296
:107290006F927F928F929F92AF92BF92CF92DF9226
:1072A000EF92FF92CF93DF9384E08093E900809187
:1072B000E80082FF30C2289884E690E09093B701FE
:1072C0008093B60119DFD82F853481F48CE49DE1D9
:1072D0009093B5018093B40107B600FCFDCFF999F6
:1072E000FECF81E180935700E89503C0843521F4F7
:1072F00003DF8DE019DFE6C18C34D9F38035C9F3A3
:10730000843721F484E410DF80E0F4CF813611F477
:1073100089E5F0CF813491F4EFDEC82FEDDE90E007
:10732000880F991F2C2F30E0322F2227330F822B0A
:10733000932BAA2797FDA095BA2F98C1803711F4F7
:1073400083E5D8CF833549F4C9EAD1E08991ECDEF1
:1073500021E0C03BD207D1F7B5C1863521F481E3E6
:10736000E3DE80E3C7CF833731F487E8DDDE85E9EC
:10737000DBDE8EE1BFCF8536B9F4E0E0F0E083E0FC
:1073800095E080935700E89507B600FCFDCF9093F9
:107390005700E89507B600FCFDCFE058FF4FE11518
:1073A00020E7F20771F7A5CF823719F4E1E0F0E0AA
:1073B0000EC0863419F4E0E0F0E009C08E3419F410
:1073C000E3E0F0E004C0813539F4E2E0F0E089E088
:1073D0008093570084918ECF823631F489E5A4DE04
:1073E00080E0A2DE80E886CF823419F0873609F08B
:1073F000D5C01092B5011092B4017EDED82E7CDE8D
:10740000E82E7ADEC82F8BEB8C0F823010F08FE3E2
:1074100071CFF12CFD2810926F00D73609F045C0CE
:1074200081E180935700E8955701912CD1E0A11498
:10743000B10409F4AFC0C090BB01D090BC01E09092
:10744000BD01F090BE01C634B9F4E92DF0E0EC299D
:10745000FD29849169DE992069F082E0C80ED11C73
:10746000E11CF11CC092BB01D092BC01E092BD01B5
:10747000F092BE019D2615C0D701C601B695A7950D
:1074800097958795FFD450DEE2E0CE0ED11CE11C2B
:10749000F11CC092BB01D092BC01E092BD01F09200
:1074A000BE01F1E0AF1AB108C2CF8090BB0190904D
:1074B000BC01A090BD01B090BE01C63421F0C12C2A
:1074C000D12CD1E030C083E0F40180935700E895DF
:1074D00007B600FCFDCFF3CFC63461F5DD2039F1EE
:1074E0004090BB015090BC016090BD017090BE0106
:1074F00003DE2C2D30E0382BF2010901D093570028
:10750000E8951124F2E04F0E511C611C711C409251
:10751000BB015092BC016092BD017092BE01DD269C
:1075200021E0E21AF108E114F104B1F627C0E4DD2C
:10753000C82EF5CFE1DD682F8091BB019091BC0191
:10754000A091BD01B091BE01B695A795979587957D
:10755000A1D44091BB015091BC016091BD017091DB
:10756000BE014E5F5F4F6F4F7F4F4093BB01509303
:10757000BC016093BD017093BE01D2CFC63441F40B
:1075800085E0F40180935700E89507B600FCFDCF35
:107590008DE0CADD82E080936F0094C0833471F483
:1075A000C091BB01D091BC01A7DD90E021E0FE01BC
:1075B0000C0120935700E89511249BCE833601F5EA
:1075C000C090BB01D090BC01E090BD01F090BE0125
:1075D00093DDF601E16090E021E00C01209357007B
:1075E000E8951124F2E0CF0ED11CE11CF11CC092F1
:1075F000BB01D092BC01E092BD01F092BE0179CEF8
:107600008D3661F4E091BB01F091BC0185E080937F
:107610005700E89507B600FCFDCF6BCE823551F4DC
:10762000E091BB01F091BC01C591D4918D2F7CDD1F
:107630008C2F60CE843419F55FDD682F8091BB01FB
:107640009091BC01A091BD01B091BE01B695A795E6
:10765000979587951FD48091BB019091BC01A09113
:10766000BD01B091BE010296A11DB11D8093BB0169
:107670009093BC01A093BD01B093BE013ACE843675
:10768000F1F4C090BB01D090BC01E090BD01F0903E
:10769000BE01D701C601B695A79597958795F2D3F8
:1076A00043DD22E0C20ED11CE11CF11CC092BB01E3
:1076B000D092BC01E092BD01F092BE0103C08B31BB
:1076C00009F0A5CE83E08093E9009091E8008091D5
:1076D000E8008E778093E80095FD11C08091E80066
:1076E00080FD04C08EB38111F9CF15C08091E800F0
:1076F0008E778093E80003C08EB3882361F0809179
:10770000E80080FFF9CF84E08093E9008091E800F1
:107710008B778093E800DF91CF91FF90EF90DF901F
:10772000CF90BF90AF909F908F907F906F905F9021
:107730004F900895CF93309100081092000824B71D
:1077400014BE88E10FB6F894809360001092600038
:107750000FBE90E080E80FB6F8948093610090939C
:1077600061000FBE81E085BF82E085BF3F9A209A0D
:10777000559A90E8909361001092610047985D9A45
:10778000289A109289009AEF9093880080936F0056
:1077900083E080938100E0E0F0E085919491019690
:1077A00019F081E08093BA0121FF20C0809100018F
:1077B0003817E1F0809300087894809101018823C4
:1077C00039F08091B2019091B30188379140C8F3AC
:1077D0001092010110920008F89481E08093010159
:1077E0008091BA01882371F0BDDC0CC020FF04C079
:1077F0008091BA018111F8CF23FF04C0809100016C
:107800003813EECFD4D078941092B5011092B40111
:10781000CEEF80910101882301F138DD1CD38091E6
:10782000B4019091B50181349F4110F01092010193
:107830008091BF019091C00101969093C001809307
:10784000BF01292F97FF02C02C2F291B220F2817B9
:1078500010F44798DECF479ADCCF8091E00081603A
:107860008093E0007FDC80E090E0CF910895292FA5
:1078700030E02230310539F02330310549F0213034
:10788000310561F410C08EE390E029E531E01EC0BF
:10789000882371F0813089F08230A1F080E090E09F
:1078A00020E030E013C082E190E027E931E00EC033
:1078B00084E090E025E531E009C08CE290E027E229
:1078C00031E004C08CE190E029E031E0FA0131833D
:1078D000208308958093E900EBEEF0E080818160E1
:1078E0008083EDEEF0E010826093EC0040838091A5
:1078F000EE00881F8827881F08958091C30187FDA7
:1079000005C08091E80080FF0DC010C08091E800A4
:1079100082FD04C08EB38111F9CF08958091E800F3
:107920008B7707C08EB38111ECCF08958091E8006A
:107930008E778093E80008950F931F93CF93DF9382
:1079400041D048D0C8EDD0E088818F778883888186
:107950008068888388818F7D888319BC1EBA1092C5
:10796000C10100EE10E0F80180818B7F8083888167
:107970008160888342E060E080E0ACDFE1EEF0E02F
:1079800080818E7F8083E2EEF0E080818160808361
:10799000808188608083F80180818E7F80838881E8
:1079A00080618883DF91CF911F910F910895E7ED5A
:1079B000F0E08081816080838AE482BF81E08093EF
:1079C000C201BACFE8EDF0E080818E7F8083109213
:1079D000E20008951092DA001092E10008951F92DB
:1079E0000F920FB60F9211242F933F934F935F93F3
:1079F0006F937F938F939F93AF93BF93EF93FF9377
:107A00008091DA0080FF1BC08091D80080FF17C0F2
:107A10008091DA008E7F8093DA008091D90080FF18
:107A20000BC080E189BD82E189BD09B400FEFDCFB4
:107A300081E08EBB0FD203C019BC1EBA0BD280915D
:107A4000E10080FF17C08091E20080FF13C08091A9
:107A5000E2008E7F8093E2008091E200806180935B
:107A6000E2008091D80080628093D80019BC85E044
:107A70008EBBF0D18091E10084FF2CC08091E200A8
:107A800084FF28C080E189BD82E189BD09B400FE80
:107A9000FDCF8091D8008F7D8093D8008091E10048
:107AA0008F7E8093E1008091E2008F7E8093E200E0
:107AB0008091E20081608093E2008091C101811198
:107AC00004C08091E30087FF02C084E001C081E030
:107AD0008EBBC0D18091E10083FF21C08091E20084
:107AE00083FF1DC08091E100877F8093E10082E0E9
:107AF0008EBB1092C1018091E1008E7F8093E100E6
:107B00008091E2008E7F8093E2008091E2008061AC
:107B10008093E20042E060E080E0DCDE9BD1FF91F8
:107B2000EF91BF91AF919F918F917F916F915F91F5
:107B30004F913F912F910F900FBE0F901F9018956E
:107B40002091C9013091CA012617370748F0611505
:107B5000710539F42091E8002E772093E80001C0E8
:107B6000B901FC0120E061157105A1F18EB38823F4
:107B7000E1F18530E1F18091E80083FD34C080912E
:107B8000E80082FF06C08091E80082FF26C080E006
:107B900008958091E80080FFE6CF2091F300809166
:107BA000F20090E0922B6115710551F0883091053B
:107BB00038F421912093F100615071090196F3CFBF
:107BC00021E0089709F020E08091E8008E7780930B
:107BD000E800C9CF2111CACFD6CF8EB3882329F0B0
:107BE000853089F604C081E0089582E0089583E03D
:107BF00008956115710529F42091E8002B772093F1
:107C0000E8006115710521F12EB3222351F12530D1
:107C100051F12091E80023FD20C02091E80022FFCF
:107C2000F3CFFC01CF014091F3002091F20030E04E
:107C3000342B232B09F38091F1008193CF01615004
:107C4000710981F7D9CF8EB3882359F0853059F067
:107C50008091E80080FFF7CF02C081E0089580E0C6
:107C6000089582E0089583E008950F931F93CF93C2
:107C7000DF9300D0CDB7DEB7E3ECF1E08091F10007
:107C8000819381E0EB3CF807C9F7D2DA8091E800F4
:107C900083FFCBC02091C3013091C401832F90E0BA
:107CA0008A30910508F0C1C0FC01EA5AF74CE4C0E3
:107CB000223809F0BAC08091C70187708093E9002B
:107CC0009091EB001092E9008091E800877F80930B
:107CD000E80095FB882780F98093F1001092F1006D
:107CE00082C0822F8D7F09F0A0C0223009F09DC094
:107CF0008091C501811124C02091C701277009F42A
:107D000094C02093E9008091EB0080FF19C080911E
:107D1000EB00333011F4806211C080618093EB007E
:107D200081E090E0022E01C0880F0A94EAF7809368
:107D3000EA001092EA008091EB0088608093EB00EB
:107D40001092E9008091E800877F50C021116DC03A
:107D50001091C5011F770FB7F8948091E800877FD5
:107D60008093E800CADD8091E80080FFFCCF80911D
:107D7000E3008078812B8093E30080688093E300A8
:107D8000112311F083E001C082E08EBB0FBF4DC014
:107D90002058223008F049C0AE014F5F5F4F60911C
:107DA000C7018091C5019091C60161DD009709F47A
:107DB0003CC02091E800277F2093E800BC01898126
:107DC0009A81BEDE8091E8008B778093E8002DC019
:107DD000203859F58091E800877F8093E8008091F2
:107DE000C1018093F1008091E8008E778093E800D4
:107DF00084DD1BC0211119C09091C5019230A8F4F7
:107E00008091E800877F8093E8009093C10175DD41
:107E10008091C101811104C08091E30087FF02C0FD
:107E200084E001C081E08EBBF7D98091E80083FF38
:107E30000AC08091EB0080628093EB008091E800A3
:107E4000877F8093E8000F900F90DF91CF911F9173
:107E50000F9108950895CF938EB3882359F0C09160
:107E6000E900C7701092E9008091E80083FDFDDE13
:107E7000C093E900CF910895EE0FFF1F0590F49194
:107E8000E02D0994F999FECF92BD81BDF89A99270A
:107E900080B50895262FF999FECF1FBA92BD81BDF6
:107EA00020BD0FB6F894FA9AF99A0FBE019608957C
:047EB000F894FFCF74
:107EB4007701000000000000081C03410072006408
:107EC40000750069006E006F002000730072006C82
:107ED400002000200000002C0341007200640075A3
:107EE4000069006E006F0020004C0065006F006E9A
:107EF400006100720064006F0020004500540048D7
:107F040000200000000403090409023E00020100ED
:107F1400803209040000010202010005240010015E
:107F2400042402040524060001070582030800FF57
:107F340009040100020A0000000705040210000100
:107F4400070583021000011201100102000008035A
:107F54002A40000100020100014341544552494EA8
:027F64004100DA
:040000030000700089
:00000001FF
