:107000005FC0000078C0000076C0000074C00000BF
:1070100072C0000070C000006EC000006CC00000B4
:107020006AC0000068C00000D1C4000064C0000055
:1070300062C0000060C000005EC000005CC00000D4
:107040005AC000009CC0000056C0000054C00000A0
:1070500052C0000050C000004EC000004CC00000F4
:107060004AC0000048C0000046C0000044C0000004
:1070700042C0000040C000003EC000003CC0000014
:107080003AC0000038C0000036C0000034C0000024
:1070900032C0000030C000002EC000002CC0000034
:1070A0002AC0000028C0000026C00000553E6E3EE9
:1070B000173F6E3E173FA83ECA3E173FEA3EFC3ED2
:1070C00011241FBECFEFDAE0DEBFCDBF11E0A0E09C
:1070D000B1E0E8EBFEE702C005900D92A23BB107DC
:1070E000D9F711E0A2EBB1E001C01D92AB3CB107B2
:1070F000E1F71BD3DFC684CF84E08093E900809161
:10710000E80085FD0DC08091E8008B778093E80052
:107110008091E80082FDF3CF8EB38111F9CF02C0D8
:107120008091F100089593E09093E9009091E80038
:1071300095FF0AC08093F1005D9884E690E09093FB
:10714000B9018093B80108959091E8009E779093DB
:10715000E8009091E80090FDEDCF9EB39111F9CF3A
:107160000895F89410926F001092810081E085BF1D
:1071700015BE47985D9A289A0C94000008951F92B6
:107180000F920FB60F9211242F938F939F93EF932B
:10719000FF9310928500109284008091B801909125
:1071A000B901009741F001979093B9018093B8011C
:1071B000892B09F45D9A8091B6019091B7010097EF
:1071C00041F001979093B7018093B601892B09F4A0
:1071D000289A8091B2019091B30101969093B301E6
:1071E0008093B201E0E0F0E085919491019649F03E
:1071F0008091B4019091B50101969093B50180936F
:10720000B401FF91EF919F918F912F910F900FBE3D
:107210000F901F90189542E061EC82E054D342E158
:1072200061E883E050D342E160E884E04CC38091A0
:10723000C301982F9F77913239F59091C401903214
:1072400091F0913209F5813AF9F48091E800877F55
:107250008093E80067E070E082E091E068D480917C
:10726000E8008B770FC0813279F48091E800877F46
:107270008093E80067E070E082E091E0B5D480910F
:10728000E8008E778093E80008956F927F928F9246
:107290009F92AF92BF92CF92DF92EF92FF920F93A5
:1072A0001F93CF93DF9384E08093E9008091E800FF
:1072B00082FF2CC2289884E690E09093B7018093D7
:1072C000B6011ADFC82F853481F48CE49DE19093D8
:1072D000B5018093B40107B600FCFDCFF999FECF4C
:1072E00081E180935700E89503C0843521F404DFE1
:1072F0008DE019DFE2C18C34D9F38035C9F38437CE
:1073000021F484E410DF80E0F4CF813611F489E5C4
:10731000F0CF813491F4F0DEC82FEEDE90E0880FDC
:10732000991F2C2F30E0322F2227330F822B932BE3
:10733000AA2797FDA095BA2F94C1803711F483E551
:10734000D8CF833549F4C9EAD1E01C2F195F899160
:10735000EADE1C13FCCFB1C1863521F481E3E3DE04
:1073600080E3C7CF833731F487E8DDDE85E9DBDEF4
:107370008EE1BFCF8536B9F4E0E0F0E083E095E040
:1073800080935700E89507B600FCFDCF9093570017
:10739000E89507B600FCFDCFE058FF4FE11520E768
:1073A000F20771F7A5CF823719F4E1E0F0E00EC0E3
:1073B000863419F4E0E0F0E009C08E3419F4E3E01B
:1073C000F0E004C0813539F4E2E0F0E089E0809338
:1073D000570084918ECF823631F489E5A4DE80E0B7
:1073E000A2DE80E886CF823419F0873609F0D1C05A
:1073F0001092B5011092B4017FDE082F7DDED82FE8
:107400007BDE182F8BEB810F823010F08FE371CF72
:107410002D2F30E0302B10926F00C73609F043C09B
:1074200081E180935700E895E90100E0BB24B39423
:10743000209709F4AAC0C090BB01D090BC01E09095
:10744000BD01F090BE011634B9F4E02FF0E0EC2954
:10745000FD29849168DE002369F082E0C80ED11C0A
:10746000E11CF11CC092BB01D092BC01E092BD01B5
:10747000F092BE010B2515C0D701C601B695A795A0
:107480009795879501D54FDEE2E0CE0ED11CE11C29
:10749000F11CC092BB01D092BC01E092BD01F09200
:1074A000BE012197C5CF8090BB019090BC01A090F8
:1074B000BD01B090BE01163441F483E0F401809325
:1074C0005700E89507B600FCFDCFE901712C00E0FC
:1074D00066246394209709F44CC0163431F50023D8
:1074E00001F1C090BB01D090BC01E090BD01F090D3
:1074F000BE0102DE272D30E0382BF6010901609233
:107500005700E8951124F2E0CF0ED11CE11CF11CCC
:10751000C092BB01D092BC01E092BD01F092BE01CD
:1075200002C0EADD782E062522C0E6DD682F8091B4
:10753000BB019091BC01A091BD01B091BE01B69577
:10754000A79597958795A8D48091BB019091BC0190
:10755000A091BD01B091BE010296A11DB11D809305
:10756000BB019093BC01A093BD01B093BE012197D4
:10757000B1CF163441F485E0F40180935700E895CB
:1075800007B600FCFDCF8DE0CEDD82E080936F007A
:1075900094C0833471F4C091BB01D091BC01ACDDC7
:1075A00090E021E0FE010C0120935700E8951124A2
:1075B0009FCE833601F5C090BB01D090BC01E09016
:1075C000BD01F090BE0198DDF601E16090E021E0A0
:1075D0000C0120935700E8951124F2E0CF0ED11C46
:1075E000E11CF11CC092BB01D092BC01E092BD0134
:1075F000F092BE017DCE8D3661F4E091BB01F09139
:10760000BC0185E080935700E89507B600FCFDCFEC
:107610006FCE823551F4E091BB01F091BC01C59170
:10762000D4918D2F80DD8C2F64CE843419F564DDE8
:10763000682F8091BB019091BC01A091BD01B091D8
:10764000BE01B695A7959795879526D48091BB01E5
:107650009091BC01A091BD01B091BE010296A11D07
:10766000B11D8093BB019093BC01A093BD01B09369
:10767000BE013ECE8436F1F4C090BB01D090BC0177
:10768000E090BD01F090BE01D701C601B695A79567
:1076900097958795F9D347DD22E0C20ED11CE11CF6
:1076A000F11CC092BB01D092BC01E092BD01F092EE
:1076B000BE0103C08B3109F0A9CE83E08093E900BD
:1076C0009091E8008091E8008E778093E80095FD26
:1076D00011C08091E80080FD04C08EB38111F9CF04
:1076E00015C08091E8008E778093E80003C08EB3C8
:1076F000882361F08091E80080FFF9CF84E08093D7
:10770000E9008091E8008B778093E800DF91CF91CA
:107710001F910F91FF90EF90DF90CF90BF90AF90AF
:107720009F908F907F906F900895CF9390910008D5
:107730001092000884B714BE28E10FB6F894209385
:107740006000109260000FBE40E820E00FB6F89491
:1077500040936100209361000FBE21E025BF32E01D
:1077600035BF3F9A209A559A40936100109261006C
:1077700047985D9A289A109289004AEF40938800B2
:1077800030936F0033E030938100E0E0F0E045910A
:1077900054914F3F5F4F11F02093BA0181FF20C0F9
:1077A000209100019217E1F02093000878948091D5
:1077B0000101882339F08091B2019091B30188379B
:1077C0009140C8F31092010110920008F89481E0F2
:1077D000809301018091BA01882371F0C2DC0CC052
:1077E00080FF04C02091BA012111F8CF83FF04C0AB
:1077F000809100019813EECFD1D078941092B5010A
:107800001092B401CEEF80910101882301F13DDD9A
:1078100024D38091B4019091B50181349F4110F03F
:10782000109201018091BF019091C0010196909347
:10783000C0018093BF01292F97FF02C02C2F291B65
:10784000220F281710F44798DECF479ADCCF80919B
:10785000E00081608093E00084DC80E090E0CF91E4
:107860000895292F30E02230310559F023303105B9
:1078700069F021303105F9F482E190E027E931E047
:107880001EC08EE390E029E531E019C0882349F05D
:10789000813061F0823079F48CE190E029E031E0D0
:1078A0000EC084E090E025E531E009C08CE290E074
:1078B00027E231E004C080E090E020E030E0FA010F
:1078C0003183208308958093E900EBEEF0E080811E
:1078D00081608083EDEEF0E010826093EC004083E5
:1078E0008091EE00881F8827881F08958091C3012A
:1078F00087FF0FC08091E80082FD04C08EB3811124
:10790000F9CF10C08091E8008B770AC08EB388232E
:1079100049F08091E80080FFF9CF8091E8008E77F0
:107920008093E80008950F931F93CF93DF9341D086
:1079300048D0C8EDD0E088818F77888388818068BF
:10794000888388818F7D888319BC1EBA1092C101FB
:1079500000EE10E0F80180818B7F80838881816058
:10796000888342E060E080E0AEDFE1EEF0E080811D
:107970008E7F8083E2EEF0E0808181608083808171
:1079800088608083F80180818E7F80838881806118
:107990008883DF91CF911F910F910895E7EDF0E07B
:1079A0008081816080838AE482BF81E08093C2010C
:1079B000BACFE8EDF0E080818E7F80831092E20004
:1079C00008951092DA001092E10008951F920F922C
:1079D0000FB60F9211242F933F934F935F936F93A2
:1079E0007F938F939F93AF93BF93EF93FF93809178
:1079F000DA0080FF1BC08091D80080FF17C0809103
:107A0000DA008E7F8093DA008091D90080FF0BC06E
:107A100080E189BD82E189BD09B400FEFDCF81E02E
:107A20008EBB1AD203C019BC1EBA16D28091E100D7
:107A300080FF17C08091E20080FF13C08091E200B8
:107A40008E7F8093E2008091E20080618093E2006B
:107A50008091D80080628093D80019BC85E08EBBED
:107A6000FBD18091E10084FF2CC08091E20084FF73
:107A700028C080E189BD82E189BD09B400FEFDCF47
:107A80008091D8008F7D8093D8008091E1008F7E17
:107A90008093E1008091E2008F7E8093E2008091EC
:107AA000E20081608093E2008091C101811106C0F3
:107AB0008091E30087FD02C081E001C084E08EBBBD
:107AC000CBD18091E10083FF21C08091E20083FF50
:107AD0001DC08091E100877F8093E10082E08EBB32
:107AE0001092C1018091E1008E7F8093E10080912E
:107AF000E2008E7F8093E2008091E20080618093BB
:107B0000E20042E060E080E0DEDEA6D1FF91EF918E
:107B1000BF91AF919F918F917F916F915F914F91A5
:107B20003F912F910F900FBE0F901F9018952091AD
:107B3000C9013091CA012617370748F06115710550
:107B400039F42091E8002E772093E80001C0B901B4
:107B500040E061157105A1F12EB3222309F440C064
:107B6000253009F43FC02091E80023FD37C0209163
:107B7000E80022FD2DC02091E80020FFEACF4091CF
:107B8000F3002091F20030E0342BFC01CF016115AD
:107B9000710559F02830310540F481918093F1004E
:107BA000615071092F5F3F4FF1CF41E0283031051F
:107BB00009F040E02091E8002E772093E800C9CF3B
:107BC0004111CACF05C08EB3882351F0853051F0E2
:107BD0008091E80082FFF7CF80E0089581E008956A
:107BE00082E0089583E008956115710529F42091DC
:107BF000E8002B772093E800FC016115710531F155
:107C00008EB3882359F1853059F18091E80083FDC6
:107C100023C08091E80082FFF0CF2091F300809193
:107C2000F20090E0922B892B31F08091F10081934A
:107C30006150710991F78091E8008B778093E8009B
:107C4000DCCF8EB3882351F0853051F08091E8006D
:107C500080FFF7CF80E0089581E0089582E00895E5
:107C600083E008950F931F93CF93DF9300D0CDB798
:107C7000DEB7E3ECF1E088E08E0F9091F100919394
:107C80008E13FBCFD4DA8091E80083FFD0C08091BF
:107C9000C301E091C4014E2F50E04A30510508F075
:107CA000C6C0FA01EA5AF74CE9C0823809F0BFC0F1
:107CB0008091C70187708093E9008091EB0010925A
:107CC000E9009091E800977F9093E80085FB882772
:107CD00080F98093F1001092F10087C0982F9D7F6A
:107CE00009F0A5C0823009F0A2C08091C5018111C0
:107CF00029C08091C701877009F499C08093E90079
:107D00009091EB0090FF1EC09091C401933021F43C
:107D10008091EB00806214C09091EB009061909391
:107D2000EB0021E030E0A90102C0440F551F8A9505
:107D3000E2F74093EA001092EA008091EB0088603D
:107D40008093EB001092E9008091E800877F50C09B
:107D500081116DC01091C5011F770FB7F894809104
:107D6000E800877F8093E800C1DD8091E80080FF14
:107D7000FCCF8091E3008078812B8093E3008068C2
:107D80008093E300111102C082E001C083E08EBB4A
:107D90000FBF4DC08058823008F049C0AE014F5F20
:107DA0005F4F6091C7018091C5019091C60159DD77
:107DB000BC01009709F43BC09091E800977F909335
:107DC000E80089819A81B3DE8091E8008B77809307
:107DD000E8002DC0803859F58091E800877F8093B6
:107DE000E8008091C1018093F1008091E8008E77D6
:107DF0008093E8007BDD1BC0811119C09091C50103
:107E00009230A8F48091E800877F8093E8009093F7
:107E1000C1016CDD8091C101811106C08091E30038
:107E200087FD02C081E001C084E08EBBF4D980915F
:107E3000E80083FF0AC08091EB0080628093EB0032
:107E40008091E800877F8093E8000F900F90DF918A
:107E5000CF911F910F9108950895CF938EB38823EA
:107E600059F0C091E900C7701092E9008091E800D4
:107E700083FDF8DEC093E900CF910895EE0FFF1F58
:107E80000590F491E02D0994F999FECF92BD81BD42
:107E9000F89A992780B50895262FF999FECF1FBA31
:107EA00092BD81BD20BD0FB6F894FA9AF99A0FBE23
:087EB00001960895F894FFCF3C
:107EB8007701000000000000081C03410072006404
:107EC80000750069006E006F002000730072006C7E
:107ED800002000200000002C03410072006400759F
:107EE8000069006E006F002000590075006E002DBB
:107EF800004D0069006E006900200020002000206D
:107F080000200000000403090409023E00020100E9
:107F1800803209040000010202010005240010015A
:107F2800042402040524060001070582030800FF53
:107F380009040100020A00000007050402100001FC
:107F48000705830210000112011001020000080356
:107F58002A50000100020100014341544552494E94
:027F68004100D6
:040000030000700089
:00000001FF
